:100000000C9415010C943D010C943D010C943D01A0
:100010000C943D010C943D010C943D010C943D0168
:100020000C943D010C943D010C943D010C943D0158
:100030000C943D010C943D010C943D010C943D0148
:100040000C943A140C943D010C9408140C94E21393
:100050000C943D010C9484140C943D010C943D01CE
:100060000C943D010C943D015265636861726761B7
:10007000626C6520004E6F6E2D5265636861726719
:1000800061626C65004E49484D20320044757261D2
:1000900063656C6C00416C6B616C696E65005369E3
:1000A0006D756C617465204D6F64656C004D6F6497
:1000B000656C204261747465727900426174746584
:1000C000727920547970650053657474696E677332
:1000D00000517569636B20546573740050726F67CB
:1000E00072616D004F7074696F6E73004261747459
:1000F000657279205465737400EC00E400DC00D173
:1001000000C800BB00AD009E0095008C0085007506
:100110000068004D61696E204D656E750020495282
:100120003A0044433A0000000008000201000003C6
:100130000407000000000000000042617474657252
:100140007920546573746F722056312E30004261ED
:10015000747465727920546573746F722056312EF1
:10016000300000000000F304353F5E836C3FBE1496
:100170007B3F6DC47E3F0FB17F3F43EC7F3F11FB60
:100180007F3FC4FE7F3FB1FF7F3FECFF7F3FFBFF20
:100190007F3FFFFF7F3F0000803F0000803F000067
:1001A000803F0000803F0000803FF304353F15EFA3
:1001B000C33EC2C5473E36BDC83D30FB483DB00AD0
:1001C000C93C900E493C880FC93BC60F493BD60F2E
:1001D000C93AD90F493ADB0FC939DB0F4939DB0F6F
:1001E000C938DB0F4938BF0FC937000000002500B0
:1001F00028002B0000000000240027002A0004042F
:1002000004040404040402020202020203030303BE
:10021000030301020408102040800102040810209A
:10022000010204081020C9145C1A11241FBECFEF6C
:10023000D8E0DEBFCDBF26E0AAE7B2E001C01D9244
:10024000AB3DB207E1F712E0A0E0B1E0E8E2FFE386
:1002500002C005900D92AA37B107D9F711E0C4E1A9
:10026000D1E004C02197FE010E948F1DC331D10748
:10027000C9F70E943E170C94871F0C9400008091D0
:100280009E062091850630918606232B91F081FDF4
:1002900013C0826080939E0680919D0682FD05C0FA
:1002A000E0918B06F0918C06099510929C0681E0F6
:1002B00008958D7F80939E0680E0089590E0FC0174
:1002C000EE5EFD4F249182509E4FFC018491882365
:1002D00099F090E0880F991FFC01EC50FE4FA5911A
:1002E000B491FC01E651FE4F859194918FB7F8943B
:1002F000EC91E22BEC938FBF0895EF92FF920F9356
:100300001F93CF93DF938C017B01D0E0C0E0F70116
:10031000EC0FFD1F6491662361F0D801ED91FC9113
:100320000190F081E02DC8010995892B11F02196EB
:10033000EECFCE01DF91CF911F910F91FF90EF9003
:100340000895AF92BF92CF92DF92EF92FF920F93F8
:100350001F93CF93DF936C017B018B01040F151F5B
:10036000EB015E01AE18BF08C017D10759F06991C3
:10037000D601ED91FC910190F081E02DC601099527
:10038000892B79F7C501DF91CF911F910F91FF90D4
:10039000EF90DF90CF90BF90AF900895FC01538D08
:1003A000448D252F30E0842F90E0821B930B54174F
:1003B00010F0CF96089501970895FC01918D828DDC
:1003C000981761F0A28DAE0FBF2FB11D5D968C9175
:1003D000928D9F5F9F73928F90E008958FEF9FEFB4
:1003E0000895FC01918D828D981731F0828DE80F70
:1003F000F11D858D90E008958FEF9FEF0895FC012A
:10040000918D228D892F90E0805C9F4F821B9109F6
:100410008F739927089587E994E00E94FF0121E0F6
:10042000892B09F420E0822F089580E090E0892B49
:1004300029F00E940B0281110C9400000895FC0128
:10044000A48DA80FB92FB11DA35ABF4F2C91848D35
:1004500090E001968F739927848FA689B7892C9392
:10046000A089B1898C91837080648C93938D848DE5
:10047000981306C00288F389E02D80818F7D8083E8
:100480000895EF92FF920F931F93CF93DF93EC01A8
:1004900081E0888F9B8D8C8D98131AC0E889F9892B
:1004A000808185FF15C09FB7F894EE89FF8960832E
:1004B000E889F98980818370806480839FBF81E0AF
:1004C00090E0DF91CF911F910F91FF90EF900895F1
:1004D000F62E0B8D10E00F5F1F4F0F731127E02ECC
:1004E0008C8D8E110CC00FB607FCFACFE889F98904
:1004F000808185FFF5CFCE010E941F02F1CFEB8DE9
:10050000EC0FFD2FF11DE35AFF4FF0829FB7F894D7
:100510000B8FEA89FB8980818062CFCFCF93DF93F5
:10052000EC01888D8823B9F0AA89BB89E889F9890B
:100530008C9185FD03C0808186FD0DC00FB607FC40
:10054000F7CF8C9185FFF2CF808185FFEDCFCE0173
:100550000E941F02E9CFDF91CF91089590E0FC0146
:10056000EA5DFE4F2491FC01EE5EFD4F3491FC01EB
:10057000E250FE4FE491EE23C9F0222339F02330FC
:1005800001F1A8F4213019F1223029F1F0E0EE0F49
:10059000FF1FE651FE4FA591B4918FB7F894EC91EF
:1005A000611126C030953E233C938FBF08952730BC
:1005B000A9F02830C9F0243049F7809180008F7D60
:1005C00003C0809180008F7780938000DFCF84B557
:1005D0008F7784BDDBCF84B58F7DFBCF8091B0005A
:1005E0008F778093B000D2CF8091B0008F7DF9CF0C
:1005F0003E2BDACF3FB7F89480918B0290918C021A
:10060000A0918D02B0918E0226B5A89B05C02F3F08
:1006100019F00196A11DB11D3FBFBA2FA92F982F28
:100620008827BC01CD01620F711D811D911D42E023
:10063000660F771F881F991F4A95D1F708958F92EB
:100640009F92AF92BF92CF92DF92EF92FF924B01B7
:100650005C010E94FA026B017C010E94FA026C1993
:100660007D098E099F09683E734081059105A8F3B5
:1006700021E0821A9108A108B10888EEC80E83E033
:10068000D81EE11CF11C81149104A104B10429F7C6
:10069000FF90EF90DF90CF90BF90AF909F908F90A2
:1006A00008952FB7F8946091870270918802809125
:1006B000890290918A022FBF0895CF92DF92EF9224
:1006C000FF920F931F93E0918706F0918806309771
:1006D00009F0099580918D0690918E06009709F496
:1006E00066C020919F0620FD62C0E0918506F091D2
:1006F0008606309709F462C02681378182179307F6
:1007000009F455C0C090AE06D090AF06E090B00698
:10071000F090B1060E9451030091AA061091AB0619
:100720002091AC063091AD06601B710B820B930BD0
:100730006C157D058E059F05D0F10E9451036093D5
:10074000AA067093AB068093AC069093AD06809199
:10075000850690918606892B39F01092A10680912A
:100760009E06816080939E060E945D0310929C0607
:1007700080919F0686FD1BC020918D0630918E06CC
:10078000806480939F0610928F061092900680914D
:10079000850690918606892BB9F180919106809308
:1007A00092061092910630939406209393061F911F
:1007B0000F91FF90EF90DF90CF900895C090AE061C
:1007C000D090AF06E090B006F090B1060E945103C1
:1007D0000091AA061091AB062091AC063091AD06AF
:1007E000601B710B820B930B6C157D058E059F05AD
:1007F000F0F20E9451036093AA067093AB068093B7
:10080000AC069093AD06B2CF10929206CACF4F922B
:100810005F926F927F928F929F92AF92BF92CF9290
:10082000DF92EF92FF920F931F93CF93DF93CDB799
:10083000DEB762970FB6F894DEBF0FBECDBF9A8BBE
:10084000898B4D835E836F83788709871A872B870F
:100850003C8720E030E040E85FE3DC0190966D915A
:100860007D918D919C9193970E94F41B6B017C016B
:10087000E989FA89C0A2D1A2E2A2F3A28080918084
:10088000A280B380A50194016D817E818F819885BE
:100890000E94F31BA70196010E94601CA501940110
:1008A0000E94F41B4B015C01A989BA898D929D922B
:1008B000AD92BC92139714964D905D906D907C9084
:1008C00017972D813E814F815885CA01B9010E9439
:1008D000E81AA30192010E94F31BA70196010E944E
:1008E000601CA30192010E94F41B2B013C01E989C9
:1008F000FA894482558266827782A5019401C501F6
:10090000B4010E94E81A9B01AC01C301B2010E942C
:10091000F31B6D877E878F87988BA989BA89189674
:100920006D937D938D939C931B971C964D905D903A
:100930006D907C901F97A301920169857A858B85C4
:100940009C850E94F31BA70196010E94601CA301D5
:1009500092010E94F41B69837A838B839C83E989CB
:10096000FA89648775878687978740885188628867
:10097000738829853A854B855C85CA01B9010E9437
:10098000E81AA30192010E94F31BA70196010E949D
:10099000601CA30192010E94F41B2B013C01A98958
:1009A000BA8950964D925D926D927C9253972981AF
:1009B0003A814B815C81CA01B9010E94E81A9B010E
:1009C000AC01C301B2010E94F31BE989FA89648B6F
:1009D000758B868B978B408C518C628C738C2985A0
:1009E0003A854B855C856D817E818F8198850E94DB
:1009F000E81AA30192010E94F31BA70196010E942D
:100A0000601CA30192010E94F41B6B017C01A98967
:100A1000BA895896CD92DD92ED92FC925B9729812E
:100A20003A814B815C81C501B4010E94E81A9B01A7
:100A3000AC01C701B6010E94F31BE989FA89648FF2
:100A4000758F868F978F2D853E854F8558890E949B
:100A5000601C9B01AC01A989BA8994962D933D93A2
:100A60004D935C939797C501B4010E94E81A9B01CE
:100A7000AC0169817A818B819C810E94F31BE98999
:100A8000FA8960A771A782A793A762960FB6F89418
:100A9000DEBF0FBECDBFDF91CF911F910F91FF90B1
:100AA000EF90DF90CF90BF90AF909F908F907F900E
:100AB0006F905F904F900895DC011696ED91FC9138
:100AC000309711F0862F09940895809185069091B2
:100AD0008606009761F06091920661110C945C05A6
:100AE000609191066111FACFFC016385F7CF0895FB
:100AF000DC011896ED91FC91309709F0099481E0A2
:100B00000895662339F0FC0184819581009711F0E6
:100B10006150F7CF0895FC0182819381009711F015
:100B20000C94810590E080E008951F93CF93DF93AC
:100B300060E00E948B05EC0110E0209779F0CE0177
:100B40000E947805811103C080919D0680FD1F5F82
:100B500061E0CE010E948105EC01EFCF812FDF9192
:100B6000CF911F91089580918306909184060097FC
:100B700011F00C94950580E0089560E08091830663
:100B8000909184060E948B05009751F0FC01208112
:100B900031812115310509F0C901FC0182850895D3
:100BA0008FEF08951F93CF93DF9310919806612FD5
:100BB00080918306909184060E948B05EC0100973A
:100BC00081F00E94780581110AC080919D0682FD06
:100BD00006C01F5F61E0CE010E948105EFCF109338
:100BE0009806DF91CF911F910895DF92EF92FF92C7
:100BF0000F931F93CF93DF93D82E8091830690910C
:100C00008406009711F00E949505DD2039F121E05E
:100C1000D21609F4C6C080919A0690919606292FA3
:100C20002150330BA901282F30E0241B350B12165D
:100C300013062CF020919706222309F48FC0DD20A3
:100C400009F4E7C031E0D31289C020919906241736
:100C5000150609F083C08F5F891BE5C0C0919A0615
:100C600000E010E0CC2309F497C060E08091830697
:100C7000909184060E948B057C0100E0D0E0C0E0EA
:100C8000892BC1F410E0C0E023C0C7010E947805A1
:100C9000811104C080919D0682FF02C0CF5F0D2F9D
:100CA00011E01D0F61E0C7010E9481057C01892BC5
:100CB00079F0D12F109198061D13E7CFCC2309F4BA
:100CC0006BC080919A06815080939A060093980693
:100CD000D0E080919D0681FF34C0DD2391F160E07A
:100CE00080918306909184060E948B057C01892B5C
:100CF00041F1C7010E947805811104C080919D06D1
:100D000082FF02C0CF5F012F1F5F61E0C7010E9419
:100D100081057C01892B69F7C150C0939A06009325
:100D20009806209196068C2F90E0622F6150770BE9
:100D3000861B970B181619068CF5C21BCF5FC09344
:100D4000970680919C06877F80939C068091A006E1
:100D500080628093A006DD2309F45DCF80919A061E
:100D600090919706891B80939906809185069091B2
:100D70008606892B49F480919D0682FD05C08091ED
:100D8000A00680648093A006DF91CF911F910F9100
:100D9000FF90EF90DF900895D1E09BCF10929706DF
:100DA000D0CF10919806612F809183069091840690
:100DB0000E948B05EC01892B99F4D1E080919D066E
:100DC00081FF0AC0DD2341F01092980610929A0626
:100DD000109297060E94D20580919C068B7FB4CF1B
:100DE00061E0CE010E948105EC01009731F31F5FA5
:100DF0000E947805811104C080919D0682FFF0CF8A
:100E000080919A068F5F80939A0610939806D0E09F
:100E1000D5CF809199068111A1CF80919706882323
:100E200009F49CCF81508093970698CF8AE00E9466
:100E3000F50580919D0682FD05C08091A006806227
:100E40008093A00608958091850690918606892B4F
:100E500031F080919F06846080939F0608951092E0
:100E60009C068091810690918206909384068093DF
:100E7000830610929B061092990610929806109283
:100E80009A06109297060E94D2058AE00E94F50504
:100E900080919D0682FD05C08091A00680628093AE
:100EA000A0060895DC011296ED91FC9113973097FE
:100EB00069F0248135812115310531F4758364830E
:100EC000FB01918380830895F901F3CF13967C93FE
:100ED0006E931297F5CF089590E080E00895EF9219
:100EE000FF920F931F93CF93DF930FE812E0C7E9B0
:100EF000D3E0F82E6894F6F887ECE82E83E00F38FC
:100F00001807E9F0F0927C00E0927A0080917A0074
:100F100084FFFCCF8091780060917900762F682F54
:100F200090E080E00E94871AF801619371938193A9
:100F300091938F011992199219921992DFCFDF9133
:100F4000CF911F910F91FF90EF9008950F931F93F2
:100F500080919D0684FD03C0806180939D060E9460
:100F6000510300917A0210917B0220917C02309112
:100F70007D02601B710B820B930B683C7105810530
:100F8000910508F447C00E94510360937A02709360
:100F90007B0280937C0290937D0280E480937C00AE
:100FA00080917A00806480937A0080917A0086FD37
:100FB000FCCF909178008091790089279827892724
:100FC0009C012C5B32402333310528F420919C0690
:100FD000206120939C069C012C5831092730310553
:100FE00028F420919C06286020939C069C012C529A
:100FF00031402F31310528F420919C062460209344
:101000009C06805F91400B9728F480919C0680623B
:1010100080939C061F910F910895FF920F931F9349
:10102000CF93DF93E0918306F091840680819181D4
:10103000009721F4309709F455C0CF01F284209134
:101040009B06222319F0215020939B06909384063F
:10105000809383061092980610929A0660E00E9490
:101060008B058C01892BB9F1D0E0C0E0C8010E944A
:101070007805811104C080919D0680FF24C0F8018D
:101080008285F8121FC0C0939A06D09398062091CB
:1010900096068C2F90E0622F6150770B861B970B82
:1010A0001816190664F4C21BCF5FC09397068AE036
:1010B000DF91CF911F910F91FF900C94F505109245
:1010C0009706F5CFCF5FDF5F61E0C8010E94810521
:1010D0008C01892B59F6DF91CF911F910F91FF90D1
:1010E0000C942307DF91CF911F910F91FF900895EA
:1010F000CF93DF938091850690918606892BC1F46A
:101100006091980680918306909184060E948B05D9
:10111000EC018C852E813F81232B69F080FF0BC071
:1011200090919D0692FD07C0D0938606C0938506D8
:10113000DF91CF91089581FF04C080919D0682FFC9
:1011400030C060E0CE010E948B05892B89F3209787
:1011500079F3CE010E949505882351F3609198069A
:1011600080918306909184060E948B05909384065B
:101170008093830680919B068E3F68F410929706B9
:101180001092980610929A060E94D20580919B06B2
:101190008F5F80939B0680919D0682FDC9CF109240
:1011A0009C06DF91CF910C941607DF92EF92FF928D
:1011B0000F931F93CF93DF93EC01062F7A01D22E6A
:1011C0008E819F81E816F906B1F4011114C011E077
:1011D00061E0CE010E948105EC01892B19F01123F9
:1011E00079F311E0812FDF91CF911F910F91FF9043
:1011F000EF90DF9008958A85D81202C0013039F34C
:1012000060E0CE010E948B05892B71F00E94780866
:1012100060E0CE010E948B05209185063091860604
:10122000232B39F00E940D0881E00E94F50510E0A3
:10123000CFCF2D2DA701602F0E94D5088111C7CFD8
:10124000F1CFCF93DF93EC0160E08E810E94AE027C
:1012500061E08E810E94AE0260E08E810E94AE024B
:101260008BE891E00197F1F7DF91CF910895CF924C
:10127000DF92EF92FF920F931F93CF93DF936C0156
:101280007C0187E0E80EF11CD0E0C0E0062F10E002
:10129000B8010C2E02C0759567950A94E2F761704B
:1012A000F70181917F010E94AE022196C430D105E1
:1012B00079F7C601DF91CF911F910F91FF90EF90C9
:1012C000DF90CF900C942109CF92DF92EF92FF92A2
:1012D0000F931F93CF93DF93EC01F62E642F8C8135
:1012E0000E94AE028D818F3F19F060E00E94AE0235
:1012F0000F2D10E08F8584FF25C06E0187E0C80E9A
:10130000D11CF12CE12CB8010E2C02C0759567950B
:101310000A94E2F76170F60181916F010E94AE02BA
:10132000FFEFEF1AFF0A88E0E816F10461F7CE013B
:10133000DF91CF911F910F91FF90EF90DF90CF90B1
:101340000C942109B80184E0759567958A95E1F7B9
:10135000CE010E9437096F2DCE01DF91CF911F91F1
:101360000F91FF90EF90DF90CF900C94370940E001
:10137000682F8FEB96E00C946409643008F063E00A
:101380009091D206691710F06FEF690FE62FF0E029
:10139000E154F94F9489890F80680C94B70981E072
:1013A0000E94B7098BE39FE10197F1F708950E942E
:1013B000CF0960E080E00C94BD09CF93DF938230C9
:1013C00029F49091CE0698609093CE068093D20631
:1013D0001092D30680E48093D40680E18093D506F2
:1013E00080E58093D6068091C3060E945E018091BD
:1013F000C4068F3F11F00E945E018091C5060E94D5
:101400005E01CFEBD6E09E012F5B36408091CE0689
:1014100084FD0AC084E090E02196281739073CF447
:101420008E810E945E01EFCF88E090E0F5CF8BE3E4
:101430009DE00197F1F760E08091C3060E94AE0243
:1014400060E08091C5060E94AE028091C4068F3F85
:1014500019F060E00E94AE028091CE0684FD34C097
:1014600063E08FEB96E00E943709CBE4D6E4CE012F
:101470000197F1F763E08FEB96E00E94370921971F
:10148000F1F763E08FEB96E00E94370983E592E085
:101490000197F1F762E08FEB96E00E9437098091A7
:1014A000CE0680620E94B70984E08093CF068CE06C
:1014B0000E94B7090E94CF0982E08093D00686E09F
:1014C000DF91CF910C94B70980620E94B7098BE439
:1014D00096E40197F1F78091CE0680620E94B709E9
:1014E00083E592E00197F1F78091CE0680620E9439
:1014F000B709D5CF41E00E94640981E090E00895EA
:10150000EF92FF920F931F93CF93DF93EC017B0138
:101510008A0188819981009729F02A813B812417CB
:10152000350788F4B8016F5F7F4F0E94BA1E00979D
:1015300091F0998388831B830A832C813D81232B1F
:1015400011F4FC0110821D830C83B70188819981FD
:101550000E94801F0CC088819981009711F00E9421
:10156000311E198218821D821C821B821A82CE01B2
:10157000DF91CF911F910F91FF90EF900895FC01A3
:10158000118210821382128215821482FB01019053
:101590000020E9F73197AF01461B570B0C94800AE6
:1015A000FB0101900020E9F73197AF01461B570B73
:1015B000DC01ED91FC910280F381E02D09948F9282
:1015C0009F92AF92BF92EF92FF920F931F93CF9390
:1015D000DF93CDB7DEB7A1970FB6F894DEBF0FBE8D
:1015E000CDBF7C01FA01CB0119A2223008F42AE018
:1015F0008E010F5D1F4F822E912CB12CA12CBF01AB
:10160000A50194010E946D1DF901CA016A300CF513
:10161000605DD8016E938D01232B242B252B79F748
:1016200090E080E0109721F0BD01C7010E94D00A30
:10163000A1960FB6F894DEBF0FBECDBFDF91CF915C
:101640001F910F91FF90EF90BF90AF909F908F9060
:101650000895695CDECFCF92DF92EF92FF926B012B
:101660007C0141E06DE28FEB96E00E946409442723
:101670005527BA014C195D096E097F092AE08FEBE5
:1016800096E00E94DF0A0196FF90EF90DF90CF90E6
:101690000895CF93DF93BC0187E994E00E94D00ABC
:1016A000EC0160EA71E087E994E00E94D00A8C0FB7
:1016B0009D1FDF91CF9108952F923F924F925F929D
:1016C0006F927F928F929F92AF92BF92CF92DF9252
:1016D000EF92FF921F93CF93DF93EC016A017B019E
:1016E000722EAB019601CB01B6010E94531D63EA35
:1016F00071E0811126C046015701E894B7F82FEF39
:101700003FEF4FE75FE7C501B4010E94531D811110
:101710000CC02FEF3FEF4FE75FE7C501B4010E9418
:10172000821A67EA71E0181664F02FEF3FEF4FE777
:101730005FE4C701B6010E94081D1816B4F46BEAF5
:1017400071E0CE01DF91CF911F91FF90EF90DF907C
:10175000CF90BF90AF909F908F907F906F905F9051
:101760004F903F902F900C94D00A2FEF3FEF4FE710
:101770005FECC701B6010E94821A87FDE0CF20E02E
:1017800030E0A901C701B6010E94821A312C212C38
:1017900087FF0DC0E881F9810190F081E02D6DE2B5
:1017A000CE0109951C01F7FAF094F7F8F09410E0D7
:1017B00060E070E080E09FE3711641F020E030E0EF
:1017C00040E251E40E94601C1F5FF6CFA701960122
:1017D0000E94F41B2B013C010E94D91C4B015C01AF
:1017E0002AE0BC01A401CE010E94DF0A7C01E20CC8
:1017F000F31C1123E1F1C501B4010E94871A9B017A
:10180000AC01C301B2010E94F31B4B015C01E881F2
:10181000F9810190F081E02D6EE2CE010995E80E8C
:10182000F91E115020F120E030E040E251E4C50102
:10183000B4010E94E81A2B013C010E94D91C4B0103
:10184000B12CA12C2AE0B501A401CE010E94DF0A2F
:10185000E80EF91EC501B4010E94871A9B01AC0174
:10186000C301B2010E94F31B4B015C01DACFC70137
:10187000DF91CF911F91FF90EF90DF90CF90BF90BD
:10188000AF909F908F907F906F905F904F903F9020
:101890002F90089522E00C945C0B0F931F93CF932D
:1018A000DF93EC010E945C0B8C0160EA71E0CE01D9
:1018B0000E94D00A800F911FDF91CF911F910F914D
:1018C00008950C94D00ACF92DF92EF92FF920F937B
:1018D0001F93CF93DF93CDB7DEB760970FB6F89421
:1018E000DEBF0FBECDBF8091A00685FFAAC08F7D51
:1018F0008093A00680919D06982F9F7790939D06D8
:1019000082FD05C0E0918B06F0918C060995D09080
:10191000970680919B06811152C060E00E94BD092C
:1019200063E171E08FEB96E00E947D0110919706D4
:1019300060E080918306909184060E948B057C0173
:101940001123B9F010E0892BA1F000E010E0C701ED
:101950000E947805882329F080919706801749F026
:101960000F5F1F5F61E0C7010E9481057C01892B29
:1019700071F7612F80918306909184060E948B05F8
:101980008C01892B09F45DC0FD2CE12CCC24C3947F
:10199000CD0CC8010E947805882309F448C0D801FD
:1019A0001C968C911C97DD24D394DE0C80FD23C003
:1019B00081FF3BC06E2DC8010E945C0536C00E94AD
:1019C000BD058F3F61F0E82FF0E0EE0FFF1FE750FD
:1019D000FF4F65917491CE0101960E947B1A60E0E1
:1019E00080E00E94BD09BE016F5F7F4F8FEB96E0E4
:1019F0000E94610C9BCF1A96EC91EF3F59F0F0E0FA
:101A0000EE0FFF1FE750FF4F65917491CE010196D5
:101A10000E947B1A6D2D81E00E94BD09BE016F5F9F
:101A20007F4F8FEB96E00E94610CF394ED2C61E008
:101A3000C8010E9481058C01892B19F0FC1408F45F
:101A4000A8CF8091A00686FF22C08F7B8093A0063E
:101A50000E94B305FF24F394811103C00E94B305D3
:101A6000F82E0E94B30510E0F11689F001E0010F95
:101A7000602F80E00E94BD09809199066EE71813DF
:101A80006FE58FEB96E00E947A0A102FEDCF6096FB
:101A90000FB6F894DEBF0FBECDBFDF91CF911F917F
:101AA0000F91FF90EF90DF90CF900895CF93DF9349
:101AB000C82F0E943F01882329F0D0E0D0937F02F5
:101AC000C0937E0280919E06209185063091860605
:101AD000232B09F455C080FD3FC06FEA71E08FEB06
:101AE00096E00E94610C61E080E00E94BD096DEB10
:101AF00071E08FEB96E00E94610C80917E029091E4
:101B00007F02CEE0C89FF001C99FF00D1124EC5C6C
:101B1000FA4F46815781608571858FEB96E00E9470
:101B20004A0C61EC71E08FEB96E00E94610C8091B1
:101B30007E0290917F02C89FF001C99FF00D112491
:101B4000EC5CFA4F428553856485758522E030E070
:101B50008FEB96E00E944D0C80919C06882369F0E3
:101B60008091850690918606892B39F01092A10606
:101B700080919E06816080939E06DF91CF910895AB
:101B80008E7F80939E06E8CF2F923F924F925F9276
:101B90006F927F928F929F92AF92BF92CF92DF927D
:101BA000EF92FF920F931F93CF93DF93CDB7DEB7E2
:101BB000AA970FB6F894DEBF0FBECDBF98A78FA32C
:101BC0002FE832E03A832983F90150E040E090E0C9
:101BD00080E020E230E08217930718F1821B930B1C
:101BE00036952795F8CF48175907C8F4DC01AA0F96
:101BF000BB1FAA0FBB1FA157BD4F048115812681B2
:101C00003781CD90DD90ED90FC901397C482D58202
:101C1000E682F7820D931D932D933C931397349690
:101C2000D8CF820F931F4F5F5F4F4F335105D9F6C7
:101C30001B8A1C8A1D8A1E8A198E1A8E30E83B8FD9
:101C40008FEB8C8FA1E0B0E0BC83AB831E821D8242
:101C5000EB81FC81EE0FFF1FFCA3EBA327E933E030
:101C60003A8B298B8B819C8133E0880F991F3A95A1
:101C7000E1F79EA38DA3AB81BC81AA0FBB1FAA0F66
:101C8000BB1FB8A3AF8FEFE8F2E0F88BEF87412CD2
:101C9000512C320110E000E0F0E8FF832FE32887A9
:101CA0001A86198689859A85AB81BC818A179B071C
:101CB00009F4FEC0E989FA89FAA7E9A72F843888D0
:101CC000988F8F8B2F89388D2034310508F0A5C06F
:101CD0008F8D98A1820D931D9AA389A3DC018D900D
:101CE0009D90AD90BC90EF8DF8A129A53AA5E20F8B
:101CF000F31FFE8FED8F80819181A281B3818B874D
:101D00009C87AD87BE87212F302F4F815885C50115
:101D1000B4010E94E81A6B017C01A30192016B855A
:101D20007C858D859E850E94E81A9B01AC01C701C8
:101D3000B6010E94F31B6B017C012B853C854D8510
:101D40005E85612F702F8F8198850E94E81A6B87BE
:101D50007C878D879E87A3019201C501B4010E94F3
:101D6000E81A9B01AC016B857C858D859E850E9460
:101D7000F41B4B015C01A7019601F10160817181A7
:101D8000828193810E94F31BA9A1BAA16D937D93D7
:101D90008D939C931397A5019401E9A5FAA5608101
:101DA0007181828193810E94F31BAD8DBE8D6D93F5
:101DB0007D938D939C931397A7019601F101608108
:101DC0007181828193810E94F41BD1016D937D9377
:101DD0008D939C931397A5019401E9A5FAA56081C1
:101DE0007181828193810E94F41BA9A5BAA56D938C
:101DF0007D938D939C931397EF89F88D2BA13CA134
:101E0000E20FF31FF88FEF8B8DA19EA1280E391ED4
:101E1000A80FB91FBAA7A9A755CF212F302F4F81DF
:101E20005885698D7A8D8B8D9C8D0E94E81A6B0187
:101E30007C01A30192016B897C898D899E890E9416
:101E4000E81A9B01AC01C701B6010E94F31B6B01AC
:101E50007C01A3019201698D7A8D8B8D9C8D0E94EE
:101E6000E81A4B015C01212F302F4F8158856B8977
:101E70007C898D899E890E94E81AA50194010E949F
:101E8000F41B2B013C01A985BA851196BA87A98755
:101E9000EF85F8893496F88BEF8729893A892C5F8A
:101EA0003F4F3A8B298B1C2D0D2DEF82F886FACEF1
:101EB000ED81FE81EA55FE4F4591559165917491F2
:101EC000ED81FE81EE59FE4F85919591A591B491DA
:101ED000898F9A8FAB8FBC8FDB01CA01B0588B8B77
:101EE0009C8BAD8BBE8BAD81BE811496BE83AD83C2
:101EF000EBA1FCA1FC83EB83589709F0A9CE07E97D
:101F000013E09FE8A92E93E0B92E2FE832E03C833E
:101F10002B83AB81BC816D917D918D919D91BC8313
:101F2000AB83F801C190D190E190F1908F019B01BA
:101F3000AC010E94E81A2B013C01A7019601C701E0
:101F4000B6010E94E81A9B01AC01C301B2010E94D4
:101F5000F41B0E94131DEB81FC8134976083718315
:101F6000828393832B813C81A216B30691F61C8257
:101F70001B82912C812C712C612C01E010E0A98135
:101F8000BA816D917D918D919D91BA83A983AC9019
:101F90001196BC9011971296EC9012971396FC90A4
:101FA0006801BFEFCB1ADB0A9501A7010E94821AD4
:101FB00087FF1CC0E981FA812481358146815781E0
:101FC000B501C7010E94081D181684F4292D382D6B
:101FD000472D562DB501C7010E94081D181634F46F
:101FE0001C830B839A2C8B2C7E2C6F2C8601013248
:101FF000110529F62B813C81220F331F220F331F3D
:1020000021573D4F3A83298320E030E048EF51E4E7
:10201000A981BA816D917D918D919C910E94601CE6
:102020009B01AC010E94F41B2AE038E240EA5BE32A
:102030000E94E81A6093930370939403809395032E
:1020400090939603EFA1F8A5319709F073C065EC62
:1020500071E087E994E00E94610C409193035091F4
:102060009403609195037091960323E030E087E933
:1020700094E00E944D0C60918F02709190028091CB
:102080009102909192020E94D91C90E080E00E94FF
:10209000871A20E030E040E05DE30E94E81A20E08B
:1020A00030E040E05FE30E94E81A2AE038E240EACC
:1020B0005BE30E94E81A6B017C0120E030E040E025
:1020C0005FE36091930370919403809195039091E5
:1020D00096030E94E81A9B01AC01C701B6010E9459
:1020E000F31B60938F0370939003809391039093FD
:1020F0009203609193037091940380919503909162
:102100009603AA960FB6F894DEBF0FBECDBFDF913F
:10211000CF911F910F91FF90EF90DF90CF90BF90E4
:10212000AF909F908F907F906F905F904F903F9077
:102130002F90089560ED71E087E994E00E94610CB2
:10214000409193035091940360919503709196038D
:1021500023E030E087E994E00E944D0CCACFCF9293
:10216000DF92EF92FF9281E090E00E946F0781E0A2
:1021700090E00E94C40D6B017C0182E090E00E941F
:102180006F0782E090E00E94C40D9B01AC01C70183
:10219000B6010E94601CFF90EF90DF90CF900895F1
:1021A000CF92DF92EF92FF921F93CF93DF930E9423
:1021B0003F01882319F081E08093030180919E06FE
:1021C0002091850630918606232B59F01EE080FF72
:1021D0000CC0DF91CF911F91FF90EF90DF90CF90D7
:1021E00008958E7F80939E06F4CF8091030188230B
:1021F00009F46EC00E94AF102AE939E949E15FE3B2
:102200000E94F31B6093800270938102809382028C
:102210009093830220917E0230917F02129FE00111
:10222000139FD00D1124CC5CDA4F2A853B854C8559
:102230005D850E94F31B2E813F81488559850E9450
:10224000601C20E030E048EC52E40E94E81A6B0188
:102250007C010E94CF0962E271E08FEB96E00E9460
:102260007D0140918F035091900360919103709193
:1022700092038FEB96E00E944A0C6DE171E08FEBC8
:1022800096E00E947D014091800250918102609110
:102290008202709183028FEB96E00E944A0C61E00B
:1022A00080E00E94BD0969ED71E08FEB96E00E942D
:1022B000610CB701A6018FEB96E00E944A0C62EE1A
:1022C00071E08FEB96E00E94610C109203018DCFBC
:1022D00080919C06882309F47CCF8091850690919B
:1022E0008606892B09F475CF1092A10680919E066F
:1022F000816078CF2F923F924F925F926F927F9240
:102300008F929F92AF92BF92CF92DF92EF92FF9205
:102310000F931F93CF93DF93CDB7DEB7AC970FB674
:10232000F894DEBF0FBECDBF782ECE0101965C01C2
:102330008CE2F50111928A95E9F70E943F0188230A
:1023400019F081E08093020180910201882309F451
:10235000FEC11092020184EE91E00E94490B912C83
:10236000812C772009F482C1109202018CE0889DB3
:10237000F001899DF00D1124E65FFE4F2080318031
:102380004280538020928F033092900340929103B9
:1023900050929203C480D580E680F78040855185B5
:1023A0006285738597018601C5010E9407049FEF2E
:1023B000891A990A22E030E0B201A10187E994E08C
:1023C0000E944D0C0E94CF0966EF71E08FEB96E002
:1023D0000E94610C69A17AA18BA19CA10E94D21CD0
:1023E000AB01770F660B770B77FF3AC1CB01BA01D0
:1023F0000E942B0B61E080E00E94BD0960E072E06A
:102400008FEB96E00E94610C40918F0350919003F6
:1024100060919103709192038FEB96E00E944A0CB9
:1024200064E072E08FEB96E00E94610CB701A601B8
:102430008FEB96E00E944A0C89E092E00E94490BE3
:102440006CED75E080E090E00E941F0340918F03E7
:1024500050919003609191037091920322E030E0DB
:1024600087E994E00E944D0C0E94CF0966EF71E06D
:102470008FEB96E00E94610C69A17AA18BA19CA1CF
:102480000E94D21CAB01770F660B770B77FF54C10C
:10249000CB01BA010E942B0B61E080E00E94BD09D4
:1024A00060E072E08FEB96E00E94610C40918F0338
:1024B0005091900360919103709192038FEB96E09D
:1024C0000E944A0C64E072E08FEB96E00E94610C7F
:1024D000B701A6018FEB96E00E944A0C89E092E0DA
:1024E0000E94490B2DEC3CEC4CE85FE360918F03BC
:1024F0007091900380919103909192030E94081D26
:1025000018160CF42ECFEAE08E16910414F4711014
:1025100028CF85E192E00E94490B6FE172E087E9E4
:1025200094E00E94610C69857A858B859C850E9468
:10253000131D6B017C016D897E898F89988D0E94A6
:10254000131D9B01AC01C701B6010E94E81A6B0183
:102550007C0120E030E0A9010E94821A882309F45E
:10256000F1C0A70196016D8D7E8D8F8D98A10E947F
:10257000601C20E030E048EC52EC0E94E81AAB010D
:10258000BC0187E994E00E944A0C82EE91E00E942F
:10259000490B6DE272E087E994E00E94610CCDA0E6
:1025A000DEA0EFA0F8A449A45AA46BA47CA466E31F
:1025B00072E087E994E00E94610CB701A60187E907
:1025C00094E00E944A0C6BE372E087E994E00E9479
:1025D000610C22E030E0B301A20187E994E00E949F
:1025E0004D0C20900001309001018EE0829DF001A1
:1025F000839DF00D1124EC5CFA4FC682D782E086F1
:10260000F186428653866486758604E315E0F12CD4
:10261000E12CF80171908F0141018E0C9F1CC401C7
:102620000E94A61B781621F0672DC4010E94AE1BE4
:10263000FFEFEF1AFF0A8CE8E816F10451F761E4A6
:1026400072E087E994E00E94610C80910001909112
:10265000010101969093010180930001712C74CEC9
:102660002AE08FEB96E00E94DF0AC4CE0E94AF10F2
:102670006B017C0120908F03309090034090910378
:10268000509092039C018B01B201A101C5010E94EF
:1026900007041092020122E030E0B201A10187E9B3
:1026A00094E00E944D0C0E94CF0966EF71E08FEB21
:1026B00096E00E94610C69A17AA18BA19CA10E9465
:1026C000D21CAB01770F660B770B77FF2FC0CB01C6
:1026D000BA010E942B0B61E080E00E94BD0960E01E
:1026E00072E08FEB96E00E94610C40918F03509155
:1026F000900360919103709192038FEB96E00E949A
:102700004A0C64E072E08FEB96E00E94610CB70126
:10271000A6018FEB96E00E944A0C89E092E00E94AD
:10272000490B60E67AEE80E090E08ECE2AE08FEBF7
:1027300096E00E94DF0ACFCF2AE08FEB96E00E945E
:10274000DF0AAACE60E070E080E89FE312CF8091BC
:102750009C068823F1F00E94CF096BE472E087E9C0
:1027600094E00E94610C68EB7BE080E090E00E94C6
:102770001F038091850690918606892B41F081E0A8
:102780008093A10680919E06816080939E061092A0
:102790009C06AC960FB6F894DEBF0FBECDBFDF919E
:1027A000CF911F910F91FF90EF90DF90CF90BF904E
:1027B000AF909F908F907F906F905F904F903F90E1
:1027C0002F9008951F920F920FB60F9211242F93FE
:1027D0003F934F935F936F937F938F939F93AF93A9
:1027E000BF93EF93FF9387E994E00E941F02FF914C
:1027F000EF91BF91AF919F918F917F916F915F9179
:102800004F913F912F910F900FBE0F901F901895F1
:102810001F920F920FB60F9211242F938F939F93B5
:10282000EF93FF93E091A704F091A8048081E091D9
:10283000AD04F091AE0482FD1BC090818091B00484
:102840008F5F8F732091B104821741F0E091B00443
:10285000F0E0E956FB4F958F8093B004FF91EF9124
:102860009F918F912F910F900FBE0F901F901895F1
:102870008081F4CF1F920F920FB60F9211242F93E5
:102880003F938F939F93AF93BF93809187029091D3
:102890008802A0918902B0918A023091860223E0D9
:1028A000230F2D3758F50196A11DB11D20938602E7
:1028B0008093870290938802A0938902B0938A0242
:1028C00080918B0290918C02A0918D02B0918E022A
:1028D0000196A11DB11D80938B0290938C02A09351
:1028E0008D02B0938E02BF91AF919F918F913F91D6
:1028F0002F910F900FBE0F901F90189526E8230F71
:102900000296A11DB11DD2CF1F920F920FB60F924A
:1029100011242F933F934F935F936F937F938F93E4
:102920009F93AF93BF93EF93FF9380917800609153
:102930007900762F682F80918502F0E0E0E009951C
:10294000809185028F5F8093850290918402891720
:1029500010F01092850280917C00807E909185021B
:10296000892B80937C0080917A00806480937A0028
:10297000FF91EF91BF91AF919F918F917F916F9157
:102980005F914F913F912F910F900FBE0F901F902D
:102990001895DF92EF92FF920F931F93CF93DF93DF
:1029A00010929A041092990488EE93E0A0E0B0E0AF
:1029B00080939B0490939C04A0939D04B0939E04E9
:1029C00086E891E0909398048093970485EC90E0DA
:1029D0009093A4048093A30484EC90E09093A604C5
:1029E0008093A50480EC90E09093A8048093A704C2
:1029F00081EC90E09093AA048093A90482EC90E08B
:102A00009093AC048093AB0486EC90E09093AE047A
:102A10008093AD041092B0041092B1041092B204ED
:102A20001092B3041092C2061092C10688E991E098
:102A30009093C0068093BF0618E01093C306DD2470
:102A4000DA94D092C406D9E0D093C506C4E0C0930E
:102A5000C60695E0E92EE092C70626E0F22EF09237
:102A6000C80607E00093C9061092CA061092CB066A
:102A70001092CC061092CD061092CE0681E00E94F4
:102A8000DD0982EB96E01092B3061092B206109226
:102A9000B7061092B6061092B5061092B406D09200
:102AA000BC061092BD061092BE061092B906109296
:102AB000B8061092BB061092BA06909382068093D5
:102AC0008106909384068093830681E08093960626
:102AD00023E63CE030938A062093890627ED39E00F
:102AE00030938C0620938B0626EA37E030938806D5
:102AF000209387061092750610927406109279063C
:102B000010927806109277061092760610927E0642
:102B100010927F068093800610927B0610927A06B0
:102B200010927D0610927C0610926806109267063D
:102B300010926C0610926B0610926A06109269064B
:102B400080937106109272068093730610926E063F
:102B500010926D061092700610926F0610925B062E
:102B600010925A0610925F0610925E0610925D0651
:102B700010925C0642E040936406109265068093D2
:102B8000660610926106109260061092630610921B
:102B9000620610924E0610924D0610925206109246
:102BA00051061092500610924F0693E090935706EC
:102BB000109258068093590620ED30E13093540668
:102BC0002093530610925606109255061092410615
:102BD0001092400610924506109244061092430649
:102BE00010924206C0934A0610924B0680934C0600
:102BF0001092470610924606109249061092480617
:102C0000109234061092330610923806109237064E
:102C10001092360610923506E0923D0610923E065E
:102C200080933F0610923A061092390610923C06A5
:102C300010923B06109227061092260610922B0641
:102C400010922A061092290610922806F092300659
:102C500010923106809332062AE731E130932D0637
:102C600020932C0610922F0610922E0610921A0610
:102C70001092190610921E0610921D0610921C0644
:102C800010921B060093230680932406809325064A
:102C90003093200620931F061092220610922106E0
:102CA00010920D0610920C0610921106109210064A
:102CB00010920F0610920E06109316061092170629
:102CC0008093180626E53DE0309313062093120604
:102CD0001092150610921406109200061092FF052D
:102CE000109204061092030610920206109201063A
:102CF000D093090680930A0680930B06309306064C
:102D00002093050610920806109207061092F3050C
:102D10001092F2051092F7051092F6051092F50543
:102D20001092F4055AE05093FC054093FD05809302
:102D3000FE053093F9052093F8051092FB051092DB
:102D4000FA051092E6051092E5051092EA05109238
:102D5000E9051092E8051092E7054BE04093EF0576
:102D60009093F0058093F1053093EC052093EB05EB
:102D70001092EE051092ED051092D9051092D8052B
:102D80001092DD051092DC051092DB051092DA0539
:102D90009CE09093E205C093E3058093E4053093B3
:102DA000DF052093DE051092E1051092E00568E54D
:102DB00072E080EC95E00E94BF0A61E672E086EC6A
:102DC00095E00E94BF0A6DE672E08CEC95E00E94EF
:102DD000BF0A69E672E082ED95E00E94BF0A109298
:102DE0003505109234051092370510923605109271
:102DF0003905109238056091C0057091C1056115C3
:102E0000710541F04091C4055091C50584E395E0FA
:102E10000E94800A82E598EBAEE9BEEB80933A050A
:102E200090933B05A0933C05B0933D058AE999E951
:102E3000A9E1BFE380933E0590933F05A093400531
:102E4000B0934105C2E4D5E000EC15E08EE0F82E29
:102E5000FE018F2D11928A95E9F762EA71E0CE01A9
:102E60000E94BF0A2E960C171D0791F7DF91CF9194
:102E70001F910F91FF90EF90DF900895789484B5A3
:102E8000826084BD84B5816084BD85B5826085BD66
:102E900085B5816085BD80916E00816080936E00F4
:102EA00010928100809181008260809381008091E6
:102EB0008100816080938100809180008160809397
:102EC00080008091B10084608093B1008091B00057
:102ED00081608093B00080917A00846080937A0052
:102EE00080917A00826080937A0080917A0081607C
:102EF00080937A0080917A00806880937A001092A3
:102F0000C100E091A704F091A80482E08083E091E1
:102F1000A304F091A4041082E091A504F091A6040A
:102F20008FEC80831092AF04E091AB04F091AC047D
:102F300086E08083E091A904F091AA0480818061F9
:102F40008083E091A904F091AA0480818860808345
:102F5000E091A904F091AA04808180688083E091C7
:102F6000A904F091AA0480818F7D80836EE471E0D2
:102F700087E994E00E947D0160EA71E087E994E0CE
:102F80000E94D00A82E00E94DD096AE371E08FEBC3
:102F900096E00E947D0164E776E082EB96E00E9475
:102FA000520767E676E082EB96E00E9452076AE5F8
:102FB00076E082EB96E00E9452076DE476E084E7CB
:102FC00096E00E94520760E476E087E696E00E9471
:102FD000520763E376E080E496E00E94520766E2DF
:102FE00076E08AE596E00E94520769E176E08AE59C
:102FF00096E00E9452076CE076E083E396E00E9440
:1030000052076FEF75E083E396E00E94520762EF8C
:1030100075E083E396E00E94520765EE75E083E376
:1030200096E00E94520768ED75E083E396E00E9407
:10303000520710929D0610929E0610929C061092C6
:103040009F061092A0061092990610929B0610926D
:10305000980610929A061092860610928506109293
:10306000A2061092A3061092A4061092A50680E074
:1030700091EEA5EFB5E08093A6069093A706A093E6
:10308000A806B093A9068CE0809395060E94D2050D
:103090008AE00E94F50580919D0682FD05C0909111
:1030A000A00690629093A0069091A00690629093E3
:1030B000A006826080939D0680E0E82E80E0F82ED6
:1030C000812C91EE992E95EFA92E95E0B92E0E94B4
:1030D0005D0380919C06882309F445C00E9451033A
:1030E0006093AA067093AB068093AC069093AD06EE
:1030F000209185063091860680919C06232B09F04D
:103100007FC084FF07C00E94780880919D06886078
:1031100080939D0680919C0690919F0691FD6AC0C8
:1031200083FF03C080E00E94F50580919C0682FF2A
:1031300003C081E00E94F50580919C06837011F028
:103140000E94160780919C0685FF0DC080919F0606
:103150008D7F80939F0680919B06882321F00E949B
:103160000D080E94160780919F0686FFD0C020910F
:103170008506309186068D7B80939F0680919D0603
:103180008F77856080939D06232BC9F080919E06E2
:10319000982F916090939E0682FF0E946505109281
:1031A0009C06109286061092850680919E06887F66
:1031B00080939E0680919F068E7F80939F0610923B
:1031C00092060E94230780918F06209185063091F8
:1031D0008606813031F030F1823021F1833009F000
:1031E00091C0232B09F08EC02091900650E040E062
:1031F00061E021C08C7009F49FCF0E9416079CCF1C
:1032000085FFB1CF90919F069D7F90939F0610926E
:10321000A10690919E06916090939E068F7D80936B
:103220009C06A1CF232B09F06DC0409193065091CD
:10323000940620E060E080918106909182060E94D1
:10324000D508C0919D06882309F45CC0609198065A
:1032500080918306909184060E948B05CB7FC0935A
:103260009D0620918F06223070F02430A8F40E9431
:103270007805811111C080919D068E7F80939D06F7
:103280000E94230709C0FC0126813781232B21F0EE
:10329000848580FD0E9478080E94160780919D0613
:1032A0008E7F80939D0660E08091830690918406D6
:1032B0000E948B058C01892B29F1712CC0E0C8017B
:1032C0000E947805811104C080919D0682FF5AC03A
:1032D00080919806871155C0C0939A062091960652
:1032E0008C2F90E0622F6150770B861B970B18167E
:1032F00019060CF043C0C21BCF5FC09397068AE04B
:103300000E94F50580919D068A7F80939D0680919D
:10331000850690918606892B09F4C2C080919E068D
:1033200080FD6EC090919F0692FD6AC04090A606F7
:103330005090A7066090A8067090A9060E945103BD
:103340000091A2061091A3062091A4063091A50633
:10335000601B710B820B930B641575058605970531
:10336000D8F00E9451036093A2067093A306809345
:10337000A4069093A5060E94650516C010929706B4
:10338000BECFCF5F739461E0C8010E9481058C01BC
:10339000892B09F094CFB6CF80919E0681FFEBCFA9
:1033A00080919C068111E7CF8091A006807609F478
:1033B00080C08091850690918606892B81F480914A
:1033C0009F0681FD05C080919C06837F80939C06AB
:1033D000E0918906F0918A06099510929C068091E9
:1033E000A0068F798093A006E114F10409F46FCE52
:1033F0000E940B02882309F46ACE0E94000067CE67
:10340000982F916090939E0682FF0E94650510920E
:103410008606109285061092910690919E068091E4
:103420009F06282F2E7F20939F06987F90939E06BD
:10343000C0E082FF06C08A7F80939F060E94230718
:103440001AC08091A106C81720F40E940D08CF5F12
:10345000F8CF1092A10680919B0681110FC0609158
:10346000980680918306909184060E948B050E94A5
:103470007805882319F30E94160796CF80919B0642
:103480008823C9F38091830690918406009719F4EC
:103490000E940D08F3CF0E9495058823C9F3EBCF56
:1034A0008092A6069092A706A092A806B092A906BE
:1034B0007BCF10929C0698CFCF93DF93C0ECD5E0E2
:1034C0002E9788819981009711F00E94311E85E026
:1034D000C433D807A9F7C8EDD5E02697888199812C
:1034E000009711F00E94311E85E0C03CD807A9F773
:1034F000DF91CF910895FB01DC0105900D92002032
:10350000E1F708950E94C41A08F481E00895E89450
:1035100009C097FB3EF490958095709561957F4F1B
:103520008F4F9F4F9923A9F0F92F96E9BB279395C9
:10353000F695879577956795B795F111F8CFFAF4D9
:10354000BB0F11F460FF1BC06F5F7F4F8F4F9F4F0A
:1035500016C0882311F096E911C0772321F09EE868
:10356000872F762F05C0662371F096E8862F70E0CE
:1035700060E02AF09A95660F771F881FDAF7880FA8
:103580009695879597F90895990F0008550FAA0BFE
:10359000E0E8FEEF16161706E807F907C0F0121666
:1035A0001306E407F50798F0621B730B840B950B69
:1035B00039F40A2661F0232B242B252B21F40895BE
:1035C0000A2609F4A140A6958FEF811D811D08955B
:1035D0000E94FB1A0C946C1B0E945E1B38F00E9428
:1035E000651B20F0952311F00C94551B0C945B1B6C
:1035F00011240C94A01B0E947D1B70F3959FC1F3B6
:10360000950F50E0551F629FF001729FBB27F00D90
:10361000B11D639FAA27F00DB11DAA1F649F6627E5
:10362000B00DA11D661F829F2227B00DA11D621F34
:10363000739FB00DA11D621F839FA00D611D221FEE
:10364000749F3327A00D611D231F849F600D211DD2
:10365000822F762F6A2F11249F5750409AF0F1F055
:1036600088234AF0EE0FFF1FBB1F661F771F881FBE
:1036700091505040A9F79E3F510580F00C94551B86
:103680000C94A01B5F3FE4F3983ED4F386957795A6
:103690006795B795F795E7959F5FC1F7FE2B880F64
:1036A000911D9695879597F9089597F99F6780E8FA
:1036B00070E060E008959FEF80EC089500240A9484
:1036C0001616170618060906089500240A941216FD
:1036D0001306140605060895092E0394000C11F430
:1036E000882352F0BB0F40F4BF2B11F460FF04C0DD
:1036F0006F5F7F4F8F4F9F4F089557FD9058440F36
:10370000551F59F05F3F71F04795880F97FB991F40
:1037100061F09F3F79F087950895121613061406FD
:10372000551FF2CF4695F1DF08C01616170618068A
:10373000991FF1CF86957105610508940895E89465
:10374000BB2766277727CB0197F90895F999FECF14
:1037500092BD81BDF89A992780B50895262FF999D1
:10376000FECF1FBA92BD81BD20BD0FB6F894FA9A64
:10377000F99A0FBE019608952F923F924F925F9251
:103780006F927F928F929F92AF92BF92CF92DF9271
:10379000EF92FF920F931F93CF93DF93CDB7DEB7D6
:1037A000CA1BDB0B0FB6F894DEBF0FBECDBF09946A
:1037B0002A88398848885F846E847D848C849B84C1
:1037C000AA84B984C884DF80EE80FD800C811B81CF
:1037D000AA81B981CE0FD11D0FB6F894DEBF0FBEFE
:1037E000CDBFED0108955058BB27AA270E940B1C9E
:1037F0000C946C1B0E945E1B38F00E94651B20F02D
:1038000039F49F3F19F426F40C945B1B0EF4E095F9
:10381000E7FB0C94551BE92F0E947D1B58F3BA1748
:10382000620773078407950720F079F4A6F50C94D6
:103830009F1B0EF4E0950B2EBA2FA02D0B01B901A2
:1038400090010C01CA01A0011124FF27591B99F016
:10385000593F50F4503E68F11A16F040A22F232F22
:10386000342F4427585FF3CF469537952795A79572
:10387000F0405395C9F77EF41F16BA0B620B730B19
:10388000840BBAF09150A1F0FF0FBB1F661F771F8A
:10389000881FC2F70EC0BA0F621F731F841F48F43F
:1038A000879577956795B795F7959E3F08F0B0CFC8
:1038B0009395880F08F09927EE0F979587950895AF
:1038C0000E94741C0C946C1B0E94651B58F00E9493
:1038D0005E1B40F029F45F3F29F00C94551B5111F9
:1038E0000C94A01B0C945B1B0E947D1B68F3992316
:1038F000B1F3552391F3951B550BBB27AA276217EC
:103900007307840738F09F5F5F4F220F331F441FF8
:10391000AA1FA9F335D00E2E3AF0E0E832D091502C
:103920005040E695001CCAF72BD0FE2F29D0660F19
:10393000771F881FBB1F261737074807AB07B0E85C
:1039400009F0BB0B802DBF01FF2793585F4F3AF062
:103950009E3F510578F00C94551B0C94A01B5F3FC3
:10396000E4F3983ED4F3869577956795B795F795E8
:103970009F5FC9F7880F911D9695879597F90895D0
:10398000E1E0660F771F881FBB1F6217730784076C
:10399000BA0720F0621B730B840BBA0BEE1F88F77B
:1039A000E09508950E94D91C6894B1110C94A01B55
:1039B00008950E94851B88F09F5798F0B92F99278A
:1039C000B751B0F0E1F0660F771F881F991F1AF00A
:1039D000BA95C9F714C0B13091F00E949F1BB1E0B5
:1039E00008950C949F1B672F782F8827B85F39F0B4
:1039F000B93FCCF3869577956795B395D9F73EF4A3
:103A000090958095709561957F4F8F4F9F4F08954A
:103A10000E94C41A08F48FEF089519F416F40C9458
:103A20005B1B0C94581D0E94851BB8F39923C9F3A6
:103A3000B6F39F57550B87FF0E94661D0024A0E632
:103A400040EA900180585695979528F4805C660F5F
:103A5000771F881F20F026173707480730F4621BAE
:103A6000730B840B202931294A2BA69517940794B0
:103A7000202531254A2758F7660F771F881F20F029
:103A800026173707480730F4620B730B840B200DA1
:103A9000311D411DA09581F7B901842F9158880FE0
:103AA0009695879508950E94C41A880B990B0895DE
:103AB0009F3F31F0915020F4879577956795B795A2
:103AC000880F911D9695879597F9089591505040CC
:103AD000660F771F881FD2F70895A1E21A2EAA1B3E
:103AE000BB1BFD010DC0AA1FBB1FEE1FFF1FA217AE
:103AF000B307E407F50720F0A21BB30BE40BF50BAB
:103B0000661F771F881F991F1A9469F76095709533
:103B1000809590959B01AC01BD01CF010895EE0FFA
:103B2000FF1F0590F491E02D09940F931F93CF93FD
:103B3000DF938230910510F482E090E0E091D906A5
:103B4000F091DA0630E020E0B0E0A0E0309799F4A0
:103B50002115310509F44AC0281B390B24303105E1
:103B6000D8F58A819B816115710589F1FB019383E9
:103B70008283FE0111C04081518102811381481767
:103B80005907E0F04817590799F4109761F0129619
:103B90000C93129713961C933296CF01DF91CF911D
:103BA0001F910F9108950093D9061093DA06F4CF70
:103BB0002115310551F04217530738F0A901DB01F7
:103BC0009A01BD01DF01F801C1CFEF01F9CF909358
:103BD000DA068093D906CDCFFE01E20FF31F819361
:103BE00091932250310939832883D7CF2091D7066A
:103BF0003091D806232B41F4209106013091070122
:103C00003093D8062093D706209104013091050106
:103C10002115310541F42DB73EB74091080150916F
:103C20000901241B350BE091D706F091D806E21765
:103C3000F307A0F42E1B3F0B2817390778F0AC01CF
:103C40004E5F5F4F2417350748F04E0F5F1F5093AC
:103C5000D8064093D706819391939FCFF0E0E0E0A0
:103C60009CCFCF93DF930097E9F0FC01329713824A
:103C70001282A091D906B091DA06ED0130E020E081
:103C80001097A1F420813181820F931F2091D706D4
:103C90003091D8062817390709F061C0F093D8068B
:103CA000E093D706DF91CF910895EA01CE17DF07A1
:103CB000E8F54A815B819E0141155105B1F7E901A3
:103CC000FB83EA8349915991C40FD51FEC17FD0777
:103CD00061F4808191810296840F951FE901998397
:103CE0008883828193819B838A83F0E0E0E012964F
:103CF0008D919C9113970097B9F52D913C91119757
:103D0000CD010296820F931F2091D7063091D806DD
:103D10002817390739F6309751F51092DA061092C4
:103D2000D906B093D806A093D706BCCFD383C2835D
:103D300040815181840F951FC817D90761F44E5FE8
:103D40005F4F88819981480F591F518340838A8131
:103D50009B81938382832115310509F0B0CFF093C5
:103D6000DA06E093D9069ECFFD01DC01C0CF1382B5
:103D70001282D7CFB0E0A0E0E0ECFEE10C94BE1BD5
:103D80008C01009751F4CB010E94951D8C01C80154
:103D9000CDB7DEB7E0E10C94DA1BFC01E60FF71FAC
:103DA0009C0122503109E217F30708F49DC0D901A4
:103DB000CD91DC911197C617D70798F0C530D10582
:103DC00030F3CE0104978617970708F3C61BD70B6D
:103DD0002297C193D1936D937C93CF010E94311EA2
:103DE000D6CF5B01AC1ABD0A4C018C0E9D1EA09172
:103DF000D906B091DA06512C412CF12CE12C109708
:103E000031F58091D7069091D8068815990509F06B
:103E10005CC04616570608F058C080910401909186
:103E20000501009741F48DB79EB74091080150916C
:103E30000901841B950BE817F90708F055C0F093AA
:103E4000D806E093D706F90171836083A0CF8D91E6
:103E50009C91119712966C90129713967C901397E1
:103E6000A815B90559F56C0142E0C40ED11CCA145D
:103E7000DB0420F1AC014A195B09DA0112961597AF
:103E800080F06282738251834083D9016D937C9369
:103E9000E114F10471F0D7011396FC93EE9312979D
:103EA00076CF22968C0F9D1FF90191838083F301B9
:103EB000EFCFF093DA06E093D90669CF481659069A
:103EC00008F42C017D01D3019ACFCB010E94951DEE
:103ED0007C01009749F0AE01B8010E94771FC8012C
:103EE0000E94311E870153CF10E000E050CFFB014C
:103EF000DC0102C001900D9241505040D8F7089566
:103F0000FB01DC0101900D920020E1F7089511E022
:103F1000C4E1D1E004C0FE010E948F1D2196C5318D
:083F2000D107C9F7F894FFCFA7
:103F2800010001010000DB068000D7A3B03F9A9989
:103F3800993E0000803FB81EA53FC3F5A83E6666BF
:103F4800663F5C8FA23FEC51B83ECDCC4C3FD7A327
:103F5800A03F14AEC73E3333333FB6F39D3F3D0A0F
:103F6800D73E9A99193FCDCC9C3F6666E63E000045
:103F7800003FF6289C3F0E2DB23ECDCCCC3ED12240
:103F88009B3F5C8F023F9A99993E3D0A973F85EB8C
:103F9800113FCDCC4C3ECDCC8C3F9A99193FCDCC1E
:103FA800CC3D000000004102A101CE018E02FF01BC
:103FB800DD01F101000000007A0AA1016C076B071E
:103FC8000D0A006E616E00696E66006F7666004DC0
:103FD8006F64656C204368616E6765640059203DB5
:103FE800002A582B00426174746572793A202000C7
:103FF8005368756E743A2020004845414C54483A3D
:10400800200025004C6561726E696E6720537461EB
:1040180072746564200044415441204E4F3A200098
:1040280044433A002049523A00536C656570696E02
:10403800672E2E2E00456E64206C6561726E0043FB
:104048006F7272656C6174696F6E3A200056616CAC
:104058007565733A200059203D20002A58202B20EE
:104068000043617074757265642000436865636B12
:10407800696E67206F757400416C6B616C696E6561
:10408800004475726163656C004E6F6E2D526563F6
:0A4098006861726761626C650000E8
:107E0000112484B714BE81FFF0D085E080938100F7
:107E100082E08093C00088E18093C10086E0809377
:107E2000C20080E18093C4008EE0C9D0259A86E02C
:107E300020E33CEF91E0309385002093840096BBD3
:107E4000B09BFECF1D9AA8958150A9F7CC24DD24C4
:107E500088248394B5E0AB2EA1E19A2EF3E0BF2EE7
:107E6000A2D0813461F49FD0082FAFD0023811F036
:107E7000013811F484E001C083E08DD089C08234E0
:107E800011F484E103C0853419F485E0A6D080C0E4
:107E9000853579F488D0E82EFF2485D0082F10E0AE
:107EA000102F00270E291F29000F111F8ED06801E7
:107EB0006FC0863521F484E090D080E0DECF843638
:107EC00009F040C070D06FD0082F6DD080E0C81688
:107ED00080E7D80618F4F601B7BEE895C0E0D1E017
:107EE00062D089930C17E1F7F0E0CF16F0E7DF06D8
:107EF00018F0F601B7BEE89568D007B600FCFDCFD4
:107F0000A601A0E0B1E02C9130E011968C91119780
:107F100090E0982F8827822B932B1296FA010C0160
:107F200087BEE89511244E5F5F4FF1E0A038BF0790
:107F300051F7F601A7BEE89507B600FCFDCF97BE46
:107F4000E89526C08437B1F42ED02DD0F82E2BD052
:107F50003CD0F601EF2C8F010F5F1F4F84911BD097
:107F6000EA94F801C1F70894C11CD11CFA94CF0C13
:107F7000D11C0EC0853739F428D08EE10CD085E9AC
:107F80000AD08FE07ACF813511F488E018D01DD067
:107F900080E101D065CF982F8091C00085FFFCCF94
:107FA0009093C60008958091C00087FFFCCF809118
:107FB000C00084FD01C0A8958091C6000895E0E648
:107FC000F0E098E1908380830895EDDF803219F02E
:107FD00088E0F5DFFFCF84E1DECF1F93182FE3DFCA
:107FE0001150E9F7F2DF1F91089580E0E8DFEE27F6
:047FF000FF270994CA
:027FFE00040479
:0400000300007E007B
:00000001FF
